:03000000020008F3
:0300610002000397
:0500030012007E80FEEA
:020064007A0020
:03006600BA0A00D3
:0400690050127B00B6
:03006D00BBFA00DB
:0400700050087CB800
:0600740000DCFD0B80F32F
:03007A000A80E910
:01007D002260
:0C007E00120064C290120064D29080F462
:06003700E478FFF6D8FD9D
:080015007900E94400601B7A48
:05001D000090008E7848
:030022000075A0C6
:0A00250000E493F2A308B8000205FE
:08002F00A0D9F4DAF275A0FF7C
:04003D0075A0007832
:0700410000E84400600779AC
:0600480000E4F309D8FCFE
:08004E007800E84400600C7921
:0B00560000900000E4F0A3D8FCD9FAF1
:03000800758107F8
:0A000B0012008AE582600302000380
:04008A007582002259
:00000001FF
